:060000000A128A110E280D
:10000800FE00030EF8000408F9000A08FA000A12B4
:100018008A11C6290A128A1111280A128A11702215
:100028000A128A11BD00B601B701B801B901BA01B7
:10003800BB01BC01FB0183010A128A11562A8312F3
:100048000313B4006430A6000030A7003408B000E1
:10005800B1013008A8003108A9000A128A11AF209E
:100068000A128A11831203132F08023E84002608FD
:1000780083138000840A270880000A30A600003015
:10008800A7002F08023E84000008A000840A000888
:10009800A1009C30A200FF30A3000A128A112F226F
:1000A8000A128A118312031334082007A8002108B2
:1000B8000318210AA9000A128A11AF200A128A110C
:1000C800831203132F08043E84002608831380003C
:1000D800840A270880002F08023E84000008A00038
:1000E800840A0008A1009C30A200FF30A3000A1275
:1000F8008A112F220A128A11831203133408200747
:10010800B00021080318210AB1002F08043E84001A
:1001180083130008A000840A0008A100F630A2009A
:10012800FF30A3000A128A112F220A128A118312A1
:10013800031320083007B20021080318210A3107E9
:10014800B3002F08063E8400320883138000840A17
:1001580033088000080083120313AC01A71FB528D9
:10016800B628BD28A609A709A60A0319A70AAC013B
:10017800AC0AA91FC028C128CA28A809A909A80A21
:100188000319A90A0130AA002A08AC06AD01AE017C
:10019800260827040319D128D2280929AB01AB0A5C
:1001A800E02801300310A60DA70DFF3E031DD62839
:1001B8000130AA002A08AB07A71FE328E428D5289E
:1001C80001300310AD0DAE0DFF3E031DE5282708D5
:1001D8002902031DF12826082802031CF428F52803
:1001E800FC282608A8022708031CA903A9022D1425
:1001F80001300310A70CA60CFF3E031DFD2801309B
:10020800AB02031D08290929E4282C0803190D2924
:100218000E291329AD09AE09AD0A0319AE0A2E0835
:10022800A7002D08A6000800F3014C293F30F20072
:100238007208F30071290630F2007208F300712980
:100248005B30F2007208F30071294F30F200720837
:10025800F30071296630F2007208F30071296D30DD
:10026800F2007208F30071297D30F2007208F30081
:1002780071290730F2007208F30071297F30F2000B
:100288007208F30071296F30F2007208F3007129C7
:100298007108003A0319512971297008003A0319A5
:1002A8001A29013A03191F29033A03192429013A83
:1002B80003192929073A03192E29013A0319332961
:1002C800033A03193829013A03193D290F3A03194A
:1002D8004229013A03194729712973080800F600D1
:1002E8008312031388018701B22908157608023E94
:1002F800840083130008F000840A0008F1000A1241
:100308008A1118210A128A11831203138700C5293A
:1003180088147608043E840083130008F000840AD9
:100328000008F1000A128A1118210A128A11831290
:1003380003138700C52908147608063E8400831332
:100348000008F000840A0008F1000A128A11182136
:100358000A128A11831203138700C5297B08F40047
:10036800F5017508003A0319BA29C5297408003A35
:1003780003197929013A03198C29033A03199F298A
:10038800C52908000B1CC929CA29DD2983120313B2
:100398000618CF29D029D5290130F7007708B607E4
:1003A800DB298618D829D929DB290130B6020B1098
:1003B800F7290B1DE029E129F72937300A128A119C
:1003C80073210A128A110130F7007708FB070330FE
:1003D8007B02031CF029F129F229FB010B11FE30E5
:1003E8008312031381007A088A0079088400780E42
:1003F8008300FE0E7E0E090083160317880189010B
:100408008316031385010330860087018801831250
:10041800031385018601870188018B178B168B15BD
:100428000B110B108316031316149614811315144D
:100438009514811281110108F83906388100FE30BF
:10044800831203138100831603130F088F39303882
:100458008F000F14080083120313A401A501201CA8
:10046800362A372A3D2A2208A4070318A50A230892
:10047800A50701300310A20DA30DFF3E031D3E2A60
:1004880001300310A10CA00CFF3E031D452A2008D3
:100498002104031D502A512A332A2508A1002408C3
:1004A800A00008000A128A1100220A128A113730A5
:1004B80083120313B5003508AF007B300A128A1186
:1004C80023200A128A1183120313B6013608850005
:0A04D8006A2A0A128A110E287B34EA
:08400000FF3FFF3FFF3FFF3FC0
:04400E00D420FF3F7C
:00000001FF
